{
  "contractName": "DelegateCoin",
  "abi": [
    {
      "inputs": [
        {
          "internalType": "string",
          "name": "name_",
          "type": "string"
        },
        {
          "internalType": "string",
          "name": "symbol_",
          "type": "string"
        },
        {
          "internalType": "address",
          "name": "logic_contract_",
          "type": "address"
        }
      ],
      "stateMutability": "nonpayable",
      "type": "constructor"
    },
    {
      "stateMutability": "payable",
      "type": "fallback",
      "payable": true
    },
    {
      "inputs": [],
      "name": "initialized",
      "outputs": [
        {
          "internalType": "bool",
          "name": "",
          "type": "bool"
        }
      ],
      "stateMutability": "view",
      "type": "function",
      "constant": true
    },
    {
      "inputs": [],
      "name": "logic_contract",
      "outputs": [
        {
          "internalType": "address",
          "name": "",
          "type": "address"
        }
      ],
      "stateMutability": "view",
      "type": "function",
      "constant": true
    },
    {
      "stateMutability": "payable",
      "type": "receive",
      "payable": true
    }
  ],
  "bytecode": "0x608060405234801561001057600080fd5b506040516104c33803806104c38339818101604052606081101561003357600080fd5b810190808051604051939291908464010000000082111561005357600080fd5b8382019150602082018581111561006957600080fd5b825186600182028301116401000000008211171561008657600080fd5b8083526020830192505050908051906020019080838360005b838110156100ba57808201518184015260208101905061009f565b50505050905090810190601f1680156100e75780820380516001836020036101000a031916815260200191505b506040526020018051604051939291908464010000000082111561010a57600080fd5b8382019150602082018581111561012057600080fd5b825186600182028301116401000000008211171561013d57600080fd5b8083526020830192505050908051906020019080838360005b83811015610171578082015181840152602081019050610156565b50505050905090810190601f16801561019e5780820380516001836020036101000a031916815260200191505b506040526020018051906020019092919050505082600390805190602001906101c8929190610245565b5081600490805190602001906101df929190610245565b506012600560006101000a81548160ff021916908360ff16021790555080600560026101000a81548173ffffffffffffffffffffffffffffffffffffffff021916908373ffffffffffffffffffffffffffffffffffffffff1602179055505050506102e2565b828054600181600116156101000203166002900490600052602060002090601f016020900481019282601f1061028657805160ff19168380011785556102b4565b828001600101855582156102b4579182015b828111156102b3578251825591602001919060010190610298565b5b5090506102c191906102c5565b5090565b5b808211156102de5760008160009055506001016102c6565b5090565b6101d2806102f16000396000f3fe60806040526004361061002d5760003560e01c8063158ef93e146100f55780634de9432014610122576100a8565b366100a85760006100a6576040517f08c379a000000000000000000000000000000000000000000000000000000000815260040180806020018281038252601c8152602001807f576520646f206e6f742061636365707420657468657220616c6f6e650000000081525060200191505060405180910390fd5b005b6000600560029054906101000a900473ffffffffffffffffffffffffffffffffffffffff1690503660008037600080366000845af43d6000803e80600081146100f0573d6000f35b3d6000fd5b34801561010157600080fd5b5061010a610163565b60405180821515815260200191505060405180910390f35b34801561012e57600080fd5b50610137610176565b604051808273ffffffffffffffffffffffffffffffffffffffff16815260200191505060405180910390f35b600560019054906101000a900460ff1681565b600560029054906101000a900473ffffffffffffffffffffffffffffffffffffffff168156fea26469706673582212209a36709b2cb9251d4ff6a6cd911deb67040d837ce3ad48602592219bb8d59d6564736f6c634300060c0033",
  "immutableReferences": {},
  "source": "// SPDX-License-Identifier: MIT\npragma solidity ^0.6.12;\n\ncontract DelegateCoin {\n    mapping(address => uint256) private _balances;\n\n    mapping(address => mapping(address => uint256)) private _allowances;\n\n    uint256 private _totalSupply;\n\n    string private _name;\n    string private _symbol;\n    uint8 private _decimals;\n\n    bool public initialized;\n    address public logic_contract;\n\n    constructor(\n        string memory name_,\n        string memory symbol_,\n        address logic_contract_\n    ) public {\n        _name = name_;\n        _symbol = symbol_;\n        _decimals = 18;\n        logic_contract = logic_contract_;\n    }\n\n    fallback() external payable {\n        address addr = logic_contract;\n\n        assembly {\n            calldatacopy(0, 0, calldatasize())\n            let result := delegatecall(gas(), addr, 0, calldatasize(), 0, 0)\n            returndatacopy(0, 0, returndatasize())\n            switch result\n                case 0 {\n                    revert(0, returndatasize())\n                }\n                default {\n                    return(0, returndatasize())\n                }\n        }\n    }\n\n    receive() external payable {\n        require(false, \"We do not accept ether alone\");\n    }\n}\n",
  "sourcePath": "/var/www/html/blockchain/coin-delegate/contracts/DelegateCoin.sol",
  "compiler": {
    "name": "solc",
    "version": "0.6.12+commit.27d51765.Emscripten.clang"
  },
  "schemaVersion": "3.2.5",
  "updatedAt": "2020-12-26T20:28:52.932Z",
  "networkType": "ethereum",
  "devdoc": {
    "kind": "dev",
    "methods": {},
    "version": 1
  },
  "userdoc": {
    "kind": "user",
    "methods": {},
    "version": 1
  }
}